:100000000C9435000C945D000C945D000C945D0024
:100010000C945D000C945D000C945D000C945D00EC
:100020000C945D000C945D000C945D000C949401A4
:100030000C945D000C945D000C945D000C945D00CC
:100040000C945D000C945D000C945D000C945D00BC
:100050000C945D000C945D000C945D000C945D00AC
:100060000C945D000C945D00780211241FBECFEF4C
:10007000D8E0DEBFCDBF11E0A0E0B1E0E2EEF6E0F7
:1000800002C005900D92AA30B107D9F723E0AAE08B
:10009000B1E001C01D92A737B207E1F710E0C5E358
:1000A000D0E004C02197FE010E946903C433D10748
:1000B000C9F70E94E4010C946F030C940000289887
:1000C00085E08A95F1F70000289A0895CF93DF9391
:1000D000FC0186812AE0622F0E94F90230E1839FB1
:1000E000A0011124942B948785810E94F90230E1AC
:1000F000839FA0011124942B938784810E94F9028D
:1001000030E1839FA0011124942B928783810E9468
:10011000F90230E1839FA0011124942B9187828101
:10012000C081D181C05DD7400E94F90240E1849F27
:1001300090011124292BCE0164E670E00E94050392
:10014000679566276795262B2087CE016AE070E0C9
:100150000E9405036295607F682B6783DF91CF91D2
:100160000895CF93DF9380ED0E94AD02C82F8FE0FA
:100170000E94D002C82B81ED0E94AD02C82B0E94C4
:10018000EB02D82F0E94F50280ED0E94AD02C82B31
:100190008FE00E94D002C82B8D2F8E7F0E94D0024C
:1001A000C82B0E94F5028C2FDF91CF910895CF9339
:1001B00080ED0E94AD02C82F87E00E94D002C82BBC
:1001C00080E80E94D002C82B80E80E94D002C82B91
:1001D00080E80E94D002C82B80E80E94D002C82B81
:1001E0000E94F5020E94A90280ED0E94AD02C82B78
:1001F0008EE00E94D002C82B85E00E94D002C82B5E
:100200000E94F5020E94B1008C2BCF910895CF93EC
:1002100084E40E94AD02C82F80E00E94D002C82B67
:100220008DE00E94D00282E00E94D00280E40E9411
:10023000D0020E94F5028C2FCF910895CF93DF93C7
:1002400085E40E94AD020E94E102D82F0E94E102E3
:10025000C82F0E94EB020E94F502CE01DF91CF91E0
:100260000895569A08955E9A109271031092700341
:1002700081E08093000108955E981092B40010927E
:10028000000108959C01E1E8F0E0108210928000E6
:1002900089E0808382E080936F003093890020930F
:1002A00088000895A0EBB0E01C92E1EBF0E0108232
:1002B00010927000539A83E28C9381E080831092B5
:1002C000B4000895CF93DF9300D000D0CDB7DEB750
:1002D0009C01E0910801F0910901E817F90748F045
:1002E0001092B4000F900F900F900F90DF91CF916C
:1002F000089540910601509107018417950720F059
:100300008FEF8093B400EECF2E1B3F0BAFEFB0E02A
:100310000E945A034E1B5F0B9A0150E040E00E947E
:1003200019032093B400DECF1F921FB61F92112431
:100330002F933F938F939F93AF93BF9321E020938D
:100340006D0380916E0390916F03019690936F03FC
:1003500080936E03309167033817190678F4209361
:100360006C0310926F0310926E0380917003909152
:1003700071030196909371038093700380917203CF
:100380008F5F809372038430A8F010927203809183
:10039000730390917403A0917503B0917603019655
:1003A000A11DB11D8093730390937403A0937503F3
:1003B000B0937603BF91AF919F918F913F912F9111
:1003C0001F901FBE1F901895CDB7DEB72D970FB6A3
:1003D000F894DEBF0FBECDBF8AB1806F8AB9209A74
:1003E0005198599A0091030110910401980150E02D
:1003F00040E060E074E284EF90E00E943B03215013
:10040000310930936B0320936A032091050130E09A
:10041000C801B9010E9405036150609367034091D0
:10042000010150910201429FC001439F900D529FD4
:10043000900D112490936903809368030E94A90290
:100440000E945F000E94D7000E94070180916A030A
:1004500090916B030E9442010E94520178940E9485
:1004600031010E94330190E080E00E9462018FEC34
:1004700097E00197F1F700C000008AEE97E09A83B9
:10048000898382E08B8386E18C838EE08D8389E192
:100490008E831F82CE0101960E94660080916D03BB
:1004A000882349F010926D030E941E010E94620190
:1004B000499B0E94330180916C03811110926C035F
:1004C00080910001882351F32091700330917103D2
:1004D000809168039091690382179307F8F6F89466
:1004E000109271031092700378940E943C01D6CF51
:1004F000EAE0F1E0158213A212A211A28FEF9FEFA2
:10050000DC0184A395A3A6A3B7A31092370310928E
:100510003803109239031092580310925703109227
:100520005B0310925C0310925D0310925E031092C5
:100530005F0310926003109261038AE2809362036A
:100540001092630310926403109265031092660385
:10055000089580E28093B80008951092BC0094EA58
:100560009093BC009091BC0097FFFCCF9091B90094
:10057000987F983099F48093BB0084E88093BC0006
:100580008091BC0087FFFCCF9091B900987F983193
:1005900019F081E0903409F480E0089581E0089535
:1005A0008093BB0084E88093BC008091BC0087FFEF
:1005B000FCCF9091B900987F81E0983209F480E0F7
:1005C000089584EC8093BC008091BC0087FFFCCF31
:1005D0008091BB00089584E88093BC008091BC00AA
:1005E00087FFFCCF8091BB00089584E98093BC0015
:1005F0000895991B79E004C0991F961708F0961B7F
:10060000881F7A95C9F780950895AA1BBB1B51E1F5
:1006100007C0AA1FBB1FA617B70710F0A61BB70B72
:10062000881F991F5A95A9F780959095BC01CD0117
:100630000895A1E21A2EAA1BBB1BFD010DC0AA1F23
:10064000BB1FEE1FFF1FA217B307E407F50720F03B
:10065000A21BB30BE40BF50B661F771F881F991FB6
:100660001A9469F760957095809590959B01AC01FF
:10067000BD01CF010895052E97FB1EF400940E9442
:10068000520357FD07D00E94190307FC03D04EF414
:100690000C94520350954095309521953F4F4F4F04
:1006A0005F4F089590958095709561957F4F8F4F1E
:1006B0009F4F0895A29FB001B39FC001A39F700DEB
:1006C000811D1124911DB29F700D811D1124911D5A
:1006D0000895EE0FFF1F0590F491E02D0994F89412
:0206E000FFCF4A
:0A06E200017800900128983AB80B47
:00000001FF
